{
  "_format": "hh-sol-artifact-1",
  "contractName": "TradingVault",
  "sourceName": "contracts/TradingVault.sol",
  "abi": [
    {
      "inputs": [
        {
          "internalType": "address",
          "name": "_router",
          "type": "address"
        },
        {
          "internalType": "address",
          "name": "_treasury",
          "type": "address"
        }
      ],
      "stateMutability": "nonpayable",
      "type": "constructor"
    },
    {
      "anonymous": false,
      "inputs": [
        {
          "indexed": true,
          "internalType": "address",
          "name": "user",
          "type": "address"
        },
        {
          "indexed": false,
          "internalType": "uint256",
          "name": "amount",
          "type": "uint256"
        }
      ],
      "name": "Deposited",
      "type": "event"
    },
    {
      "anonymous": false,
      "inputs": [
        {
          "indexed": true,
          "internalType": "address",
          "name": "user",
          "type": "address"
        },
        {
          "indexed": false,
          "internalType": "uint256",
          "name": "amount",
          "type": "uint256"
        }
      ],
      "name": "EmergencyWithdraw",
      "type": "event"
    },
    {
      "anonymous": false,
      "inputs": [
        {
          "indexed": true,
          "internalType": "address",
          "name": "previousOwner",
          "type": "address"
        },
        {
          "indexed": true,
          "internalType": "address",
          "name": "newOwner",
          "type": "address"
        }
      ],
      "name": "OwnershipTransferred",
      "type": "event"
    },
    {
      "anonymous": false,
      "inputs": [
        {
          "indexed": true,
          "internalType": "address",
          "name": "user",
          "type": "address"
        },
        {
          "indexed": false,
          "internalType": "uint256",
          "name": "userShare",
          "type": "uint256"
        },
        {
          "indexed": false,
          "internalType": "uint256",
          "name": "treasuryShare",
          "type": "uint256"
        }
      ],
      "name": "ProfitDistributed",
      "type": "event"
    },
    {
      "anonymous": false,
      "inputs": [
        {
          "indexed": true,
          "internalType": "address",
          "name": "user",
          "type": "address"
        },
        {
          "indexed": false,
          "internalType": "string",
          "name": "pair",
          "type": "string"
        },
        {
          "indexed": false,
          "internalType": "uint256",
          "name": "amountIn",
          "type": "uint256"
        },
        {
          "indexed": false,
          "internalType": "uint256",
          "name": "amountOut",
          "type": "uint256"
        },
        {
          "indexed": false,
          "internalType": "bool",
          "name": "isBuy",
          "type": "bool"
        },
        {
          "indexed": false,
          "internalType": "uint256",
          "name": "fee",
          "type": "uint256"
        },
        {
          "indexed": false,
          "internalType": "uint256",
          "name": "timestamp",
          "type": "uint256"
        }
      ],
      "name": "TradeExecuted",
      "type": "event"
    },
    {
      "anonymous": false,
      "inputs": [
        {
          "indexed": true,
          "internalType": "address",
          "name": "user",
          "type": "address"
        },
        {
          "indexed": false,
          "internalType": "uint256",
          "name": "amount",
          "type": "uint256"
        }
      ],
      "name": "Withdrawn",
      "type": "event"
    },
    {
      "inputs": [],
      "name": "MAX_SLIPPAGE_PERCENT",
      "outputs": [
        {
          "internalType": "uint256",
          "name": "",
          "type": "uint256"
        }
      ],
      "stateMutability": "view",
      "type": "function"
    },
    {
      "inputs": [],
      "name": "MAX_TRADE_SIZE",
      "outputs": [
        {
          "internalType": "uint256",
          "name": "",
          "type": "uint256"
        }
      ],
      "stateMutability": "view",
      "type": "function"
    },
    {
      "inputs": [],
      "name": "MIN_DEPOSIT",
      "outputs": [
        {
          "internalType": "uint256",
          "name": "",
          "type": "uint256"
        }
      ],
      "stateMutability": "view",
      "type": "function"
    },
    {
      "inputs": [],
      "name": "TREASURY_FEE_PERCENT",
      "outputs": [
        {
          "internalType": "uint256",
          "name": "",
          "type": "uint256"
        }
      ],
      "stateMutability": "view",
      "type": "function"
    },
    {
      "inputs": [],
      "name": "USDC",
      "outputs": [
        {
          "internalType": "address",
          "name": "",
          "type": "address"
        }
      ],
      "stateMutability": "view",
      "type": "function"
    },
    {
      "inputs": [],
      "name": "USDT",
      "outputs": [
        {
          "internalType": "address",
          "name": "",
          "type": "address"
        }
      ],
      "stateMutability": "view",
      "type": "function"
    },
    {
      "inputs": [],
      "name": "deposit",
      "outputs": [],
      "stateMutability": "payable",
      "type": "function"
    },
    {
      "inputs": [
        {
          "internalType": "address",
          "name": "token",
          "type": "address"
        },
        {
          "internalType": "uint256",
          "name": "amount",
          "type": "uint256"
        }
      ],
      "name": "emergencyWithdraw",
      "outputs": [],
      "stateMutability": "nonpayable",
      "type": "function"
    },
    {
      "inputs": [
        {
          "internalType": "string",
          "name": "pair",
          "type": "string"
        },
        {
          "internalType": "address",
          "name": "tokenOut",
          "type": "address"
        },
        {
          "internalType": "uint256",
          "name": "amountIn",
          "type": "uint256"
        },
        {
          "internalType": "uint256",
          "name": "minAmountOut",
          "type": "uint256"
        }
      ],
      "name": "executeBuyTrade",
      "outputs": [],
      "stateMutability": "nonpayable",
      "type": "function"
    },
    {
      "inputs": [
        {
          "internalType": "string",
          "name": "pair",
          "type": "string"
        },
        {
          "internalType": "address",
          "name": "tokenIn",
          "type": "address"
        },
        {
          "internalType": "uint256",
          "name": "amountIn",
          "type": "uint256"
        },
        {
          "internalType": "uint256",
          "name": "minAmountOut",
          "type": "uint256"
        }
      ],
      "name": "executeSellTrade",
      "outputs": [],
      "stateMutability": "nonpayable",
      "type": "function"
    },
    {
      "inputs": [
        {
          "internalType": "address",
          "name": "user",
          "type": "address"
        }
      ],
      "name": "getUserInfo",
      "outputs": [
        {
          "internalType": "uint256",
          "name": "balance",
          "type": "uint256"
        },
        {
          "internalType": "uint256",
          "name": "profit",
          "type": "uint256"
        },
        {
          "internalType": "uint256",
          "name": "lastTradeTime",
          "type": "uint256"
        },
        {
          "internalType": "uint256",
          "name": "tradeCount",
          "type": "uint256"
        }
      ],
      "stateMutability": "view",
      "type": "function"
    },
    {
      "inputs": [],
      "name": "owner",
      "outputs": [
        {
          "internalType": "address",
          "name": "",
          "type": "address"
        }
      ],
      "stateMutability": "view",
      "type": "function"
    },
    {
      "inputs": [],
      "name": "pancakeRouter",
      "outputs": [
        {
          "internalType": "contract IPancakeRouter",
          "name": "",
          "type": "address"
        }
      ],
      "stateMutability": "view",
      "type": "function"
    },
    {
      "inputs": [],
      "name": "renounceOwnership",
      "outputs": [],
      "stateMutability": "nonpayable",
      "type": "function"
    },
    {
      "inputs": [
        {
          "internalType": "uint256",
          "name": "",
          "type": "uint256"
        }
      ],
      "name": "trades",
      "outputs": [
        {
          "internalType": "address",
          "name": "user",
          "type": "address"
        },
        {
          "internalType": "string",
          "name": "pair",
          "type": "string"
        },
        {
          "internalType": "uint256",
          "name": "amountIn",
          "type": "uint256"
        },
        {
          "internalType": "uint256",
          "name": "amountOut",
          "type": "uint256"
        },
        {
          "internalType": "bool",
          "name": "isBuy",
          "type": "bool"
        },
        {
          "internalType": "uint256",
          "name": "timestamp",
          "type": "uint256"
        },
        {
          "internalType": "uint256",
          "name": "feePaid",
          "type": "uint256"
        },
        {
          "internalType": "bool",
          "name": "success",
          "type": "bool"
        }
      ],
      "stateMutability": "view",
      "type": "function"
    },
    {
      "inputs": [
        {
          "internalType": "address",
          "name": "newOwner",
          "type": "address"
        }
      ],
      "name": "transferOwnership",
      "outputs": [],
      "stateMutability": "nonpayable",
      "type": "function"
    },
    {
      "inputs": [],
      "name": "treasuryWallet",
      "outputs": [
        {
          "internalType": "address",
          "name": "",
          "type": "address"
        }
      ],
      "stateMutability": "view",
      "type": "function"
    },
    {
      "inputs": [
        {
          "internalType": "address",
          "name": "",
          "type": "address"
        }
      ],
      "name": "userBalances",
      "outputs": [
        {
          "internalType": "uint256",
          "name": "",
          "type": "uint256"
        }
      ],
      "stateMutability": "view",
      "type": "function"
    },
    {
      "inputs": [
        {
          "internalType": "address",
          "name": "",
          "type": "address"
        }
      ],
      "name": "userLastTradeTimestamp",
      "outputs": [
        {
          "internalType": "uint256",
          "name": "",
          "type": "uint256"
        }
      ],
      "stateMutability": "view",
      "type": "function"
    },
    {
      "inputs": [
        {
          "internalType": "address",
          "name": "",
          "type": "address"
        }
      ],
      "name": "userProfits",
      "outputs": [
        {
          "internalType": "uint256",
          "name": "",
          "type": "uint256"
        }
      ],
      "stateMutability": "view",
      "type": "function"
    },
    {
      "inputs": [
        {
          "internalType": "address",
          "name": "",
          "type": "address"
        },
        {
          "internalType": "uint256",
          "name": "",
          "type": "uint256"
        }
      ],
      "name": "userTradeIds",
      "outputs": [
        {
          "internalType": "uint256",
          "name": "",
          "type": "uint256"
        }
      ],
      "stateMutability": "view",
      "type": "function"
    },
    {
      "inputs": [],
      "name": "weth",
      "outputs": [
        {
          "internalType": "address",
          "name": "",
          "type": "address"
        }
      ],
      "stateMutability": "view",
      "type": "function"
    },
    {
      "inputs": [
        {
          "internalType": "uint256",
          "name": "amount",
          "type": "uint256"
        }
      ],
      "name": "withdraw",
      "outputs": [],
      "stateMutability": "nonpayable",
      "type": "function"
    },
    {
      "stateMutability": "payable",
      "type": "receive"
    }
  ],
  "bytecode": "0x60806040523480156200001157600080fd5b506040516200233e3803806200233e833981016040819052620000349162000201565b6200003f3362000194565b600180556001600160a01b038216620000905760405162461bcd60e51b815260206004820152600e60248201526d24b73b30b634b2103937baba32b960911b60448201526064015b60405180910390fd5b6001600160a01b038116620000db5760405162461bcd60e51b815260206004820152601060248201526f496e76616c696420747265617375727960801b604482015260640162000087565b600280546001600160a01b038085166001600160a01b031992831681179093556003805491851691909216179055604080516315ab88c960e31b8152905163ad5c4648916004808201926020929091908290030181865afa15801562000145573d6000803e3d6000fd5b505050506040513d601f19601f820116820180604052508101906200016b919062000239565b600480546001600160a01b0319166001600160a01b0392909216919091179055506200025e9050565b600080546001600160a01b038381166001600160a01b0319831681178455604051919092169283917f8be0079c531659141344cd1fd0a4f28419497f9722a3daafe3b4186f6b6457e09190a35050565b80516001600160a01b0381168114620001fc57600080fd5b919050565b600080604083850312156200021557600080fd5b6200022083620001e4565b91506200023060208401620001e4565b90509250929050565b6000602082840312156200024c57600080fd5b6200025782620001e4565b9392505050565b6120d0806200026e6000396000f3fe6080604052600436106101445760003560e01c80638da5cb5b116100b6578063c54e44eb1161006f578063c54e44eb1461041f578063d0e30db014610447578063e111703a1461044f578063e1e158a514610464578063e8452b001461047f578063f2fde38b1461049f57600080fd5b80638da5cb5b1461035857806395ccea6714610376578063a1fdd0bf14610396578063acdb5208146103b6578063be354836146103d2578063c21ebd07146103ff57600080fd5b80633fc8cef3116101085780633fc8cef31461021f5780634626402b146102575780636386c1c71461027757806370cd4ffa146102ee578063715018a61461031b57806389a302711461033057600080fd5b80631e6c598e1461015057806326224c641461018d5780632e1a7d4d146101c857806331780cbb146101ea57806332e4b2861461020a57600080fd5b3661014b57005b600080fd5b34801561015c57600080fd5b5061017061016b366004611a60565b6104bf565b604051610184989796959493929190611ac9565b60405180910390f35b34801561019957600080fd5b506101ba6101a8366004611b3f565b60056020526000908152604090205481565b604051908152602001610184565b3480156101d457600080fd5b506101e86101e3366004611a60565b6105ad565b005b3480156101f657600080fd5b506101e8610205366004611ba1565b6107ae565b34801561021657600080fd5b506101ba600581565b34801561022b57600080fd5b5060045461023f906001600160a01b031681565b6040516001600160a01b039091168152602001610184565b34801561026357600080fd5b5060035461023f906001600160a01b031681565b34801561028357600080fd5b506102ce610292366004611b3f565b6001600160a01b031660009081526005602090815260408083205460068352818420546007845282852054600990945291909320549293909290565b604080519485526020850193909352918301526060820152608001610184565b3480156102fa57600080fd5b506101ba610309366004611b3f565b60076020526000908152604090205481565b34801561032757600080fd5b506101e8610c4b565b34801561033c57600080fd5b5061023f738ac76a51cc950d9822d68b83fe1ad97b32cd580d81565b34801561036457600080fd5b506000546001600160a01b031661023f565b34801561038257600080fd5b506101e8610391366004611c57565b610c5f565b3480156103a257600080fd5b506101e86103b1366004611ba1565b610d83565b3480156103c257600080fd5b506101ba678ac7230489e8000081565b3480156103de57600080fd5b506101ba6103ed366004611b3f565b60066020526000908152604090205481565b34801561040b57600080fd5b5060025461023f906001600160a01b031681565b34801561042b57600080fd5b5061023f7355d398326f99059ff775485246999027b319795581565b6101e8611187565b34801561045b57600080fd5b506101ba603281565b34801561047057600080fd5b506101ba662386f26fc1000081565b34801561048b57600080fd5b506101ba61049a366004611c57565b611274565b3480156104ab57600080fd5b506101e86104ba366004611b3f565b6112a5565b600881815481106104cf57600080fd5b6000918252602090912060089091020180546001820180546001600160a01b039092169350906104fe90611c81565b80601f016020809104026020016040519081016040528092919081815260200182805461052a90611c81565b80156105775780601f1061054c57610100808354040283529160200191610577565b820191906000526020600020905b81548152906001019060200180831161055a57829003601f168201915b505050600284015460038501546004860154600587015460068801546007909801549697939692955060ff918216945092911688565b6105b561131b565b80600081116105df5760405162461bcd60e51b81526004016105d690611cbb565b60405180910390fd5b336000908152600560205260409020548211156106355760405162461bcd60e51b8152602060048201526014602482015273496e73756666696369656e742062616c616e636560601b60448201526064016105d6565b814710156106855760405162461bcd60e51b815260206004820152601860248201527f5661756c7420696e73756666696369656e742066756e6473000000000000000060448201526064016105d6565b3360009081526005602052604090205461069f9083611374565b3360009081526005602090815260408083209390935560069052205480156106de57336000908152600660205260408120556106db8382611389565b92505b604051600090339085908381818185875af1925050503d8060008114610720576040519150601f19603f3d011682016040523d82523d6000602084013e610725565b606091505b505090508061076a5760405162461bcd60e51b815260206004820152601160248201527015da5d1a191c985dd85b0819985a5b1959607a1b60448201526064016105d6565b60405184815233907f7084f5476618d8e60b11ef0d7d3f06914655adb8793e28ff7f018d4c76d505d59060200160405180910390a25050506107ab60018055565b50565b6107b661131b565b336000818152600760205260409020546107d190601e611cfd565b4210156108125760405162461bcd60e51b815260206004820152600f60248201526e436f6f6c646f776e2061637469766560881b60448201526064016105d6565b82600081116108335760405162461bcd60e51b81526004016105d690611cbb565b6001600160a01b0385167355d398326f99059ff775485246999027b3197955148061087a57506001600160a01b038516738ac76a51cc950d9822d68b83fe1ad97b32cd580d145b6108ba5760405162461bcd60e51b81526020600482015260116024820152702ab739bab83837b93a32b2103a37b5b2b760791b60448201526064016105d6565b678ac7230489e800008411156109025760405162461bcd60e51b815260206004820152600d60248201526c115e18d959591cc81b1a5b5a5d609a1b60448201526064016105d6565b6040516370a0823160e01b815230600482015284906001600160a01b038716906370a0823190602401602060405180830381865afa158015610948573d6000803e3d6000fd5b505050506040513d601f19601f8201168201806040525081019061096c9190611d10565b10156109a85760405162461bcd60e51b815260206004820152600b60248201526a5661756c7420656d70747960a81b60448201526064016105d6565b6004546000906109c490869088906001600160a01b0316611395565b905080841015610a0a5760405162461bcd60e51b81526020600482015260116024820152700a6d8d2e0e0c2ceca40e8dede40d0d2ced607b1b60448201526064016105d6565b6040805160028082526060820183526000926020830190803683370190505090508681600081518110610a3f57610a3f611d29565b6001600160a01b039283166020918202929092010152600454825191169082906001908110610a7057610a70611d29565b6001600160a01b039283166020918202929092010152600254600091166318cbafe588888530610aa2426104b0611cfd565b6040518663ffffffff1660e01b8152600401610ac2959493929190611d83565b6000604051808303816000875af1158015610ae1573d6000803e3d6000fd5b505050506040513d6000823e601f3d908101601f19168201604052610b099190810190611dbf565b905060008160018351610b1c9190611e65565b81518110610b2c57610b2c611d29565b602002602001015190506000610b576064610b516032856114f090919063ffffffff16565b906114fc565b90506000610b658383611374565b33600090815260056020526040902054909150610b829082611389565b3360009081526005602052604080822092909255600354915190916001600160a01b03169084908381818185875af1925050503d8060008114610be1576040519150601f19603f3d011682016040523d82523d6000602084013e610be6565b606091505b5050905080610c245760405162461bcd60e51b815260206004820152600a6024820152691199594819985a5b195960b21b60448201526064016105d6565b610c33338e8d87600088611508565b505050505050505050610c4560018055565b50505050565b610c536116fa565b610c5d6000611754565b565b610c676116fa565b6001600160a01b038216610d0b57600080546040516001600160a01b039091169083908381818185875af1925050503d8060008114610cc2576040519150601f19603f3d011682016040523d82523d6000602084013e610cc7565b606091505b5050905080610d055760405162461bcd60e51b815260206004820152600a6024820152691093908819985a5b195960b21b60448201526064016105d6565b50610d31565b610d31610d206000546001600160a01b031690565b6001600160a01b03841690836117a4565b6000546001600160a01b03166001600160a01b03167f5fafa99d0643513820be26656b45130b01e1c03062e1266bf36f88cbd3bd969582604051610d7791815260200190565b60405180910390a25050565b610d8b61131b565b33600081815260076020526040902054610da690601e611cfd565b421015610de75760405162461bcd60e51b815260206004820152600f60248201526e436f6f6c646f776e2061637469766560881b60448201526064016105d6565b8260008111610e085760405162461bcd60e51b81526004016105d690611cbb565b33600090815260056020526040902054841115610e5e5760405162461bcd60e51b8152602060048201526014602482015273496e73756666696369656e742062616c616e636560601b60448201526064016105d6565b678ac7230489e80000841115610ea65760405162461bcd60e51b815260206004820152600d60248201526c115e18d959591cc81b1a5b5a5d609a1b60448201526064016105d6565b6001600160a01b0385167355d398326f99059ff775485246999027b31979551480610eed57506001600160a01b038516738ac76a51cc950d9822d68b83fe1ad97b32cd580d145b610f2d5760405162461bcd60e51b81526020600482015260116024820152702ab739bab83837b93a32b2103a37b5b2b760791b60448201526064016105d6565b600454600090610f489086906001600160a01b031688611395565b905080841015610f8e5760405162461bcd60e51b81526020600482015260116024820152700a6d8d2e0e0c2ceca40e8dede40d0d2ced607b1b60448201526064016105d6565b33600090815260056020526040902054610fa89086611374565b336000908152600560205260408082209290925581516002808252606082019093529091816020016020820280368337505060045482519293506001600160a01b031691839150600090610ffe57610ffe611d29565b60200260200101906001600160a01b031690816001600160a01b031681525050868160018151811061103257611032611d29565b6001600160a01b03928316602091820292909201015260025460009116637ff36ab588888530611064426104b0611cfd565b6040518663ffffffff1660e01b81526004016110839493929190611e78565b60006040518083038185885af11580156110a1573d6000803e3d6000fd5b50505050506040513d6000823e601f3d908101601f191682016040526110ca9190810190611dbf565b9050600081600183516110dd9190611e65565b815181106110ed576110ed611d29565b6020026020010151905060006111126064610b516032856114f090919063ffffffff16565b905060006111208383611374565b3360009081526006602052604090205490915061113d9082611389565b33600090815260066020526040902055600354611167906001600160a01b038d81169116846117a4565b611176338d8c86600187611508565b5050505050505050610c4560018055565b61118f61131b565b34600081116111b05760405162461bcd60e51b81526004016105d690611cbb565b662386f26fc100003410156111f75760405162461bcd60e51b815260206004820152600d60248201526c42656c6f77206d696e696d756d60981b60448201526064016105d6565b336000908152600560205260409020546112119034611389565b336000818152600560209081526040808320949094556007905282902042905590517f2da466a7b24304f47e87fa2e1e5a81b9831ce54fec19055ce277ca2f39ba42c4906112629034815260200190565b60405180910390a250610c5d60018055565b6009602052816000526040600020818154811061129057600080fd5b90600052602060002001600091509150505481565b6112ad6116fa565b6001600160a01b0381166113125760405162461bcd60e51b815260206004820152602660248201527f4f776e61626c653a206e6577206f776e657220697320746865207a65726f206160448201526564647265737360d01b60648201526084016105d6565b6107ab81611754565b60026001540361136d5760405162461bcd60e51b815260206004820152601f60248201527f5265656e7472616e637947756172643a207265656e7472616e742063616c6c0060448201526064016105d6565b6002600155565b60006113808284611e65565b90505b92915050565b60006113808284611cfd565b6040805160028082526060820183526000928392919060208301908036833701905050905083816000815181106113ce576113ce611d29565b60200260200101906001600160a01b031690816001600160a01b031681525050828160018151811061140257611402611d29565b6001600160a01b03928316602091820292909201015260025460405163d06ca61f60e01b815291169063d06ca61f906114419088908590600401611ead565b600060405180830381865afa92505050801561147f57506040513d6000823e601f3d908101601f1916820160405261147c9190810190611dbf565b60015b61149b576114936064610b5187605f6114f0565b9150506114e9565b600081600183516114ac9190611e65565b815181106114bc576114bc611d29565b602002602001015190506114e36064610b51600560646114dc9190611e65565b84906114f0565b93505050505b9392505050565b60006113808284611ec6565b60006113808284611edd565b6008805460408051610100810182526001600160a01b038a81168252602082018a81529282018990526060820188905286151560808301524260a083015260c08201869052600160e0830181905284018555600085905281517ff3f7a9fe364faab93b216da50a3214154f22a0a2b415b23a84c8169e8b636ee395850295860180546001600160a01b031916919092161781559151929390927ff3f7a9fe364faab93b216da50a3214154f22a0a2b415b23a84c8169e8b636ee4909101906115d09082611f4d565b50604082810151600283015560608301516003830155608083015160048301805491151560ff1992831617905560a0840151600584015560c0840151600684015560e0909301516007928301805491151591909416179092556001600160a01b03891660008181526009602090815284822080546001810182559083528183200186905582825292909252908290204290819055915190917fb614238aeadc94d01a2d3933d3ef0692e0b8836ea30ad61f2dbaad8d637d776b9161169d918a918a918a918a918a9161200d565b60405180910390a26001600160a01b0387167f6d3df9844b6224b91ec53a46da9db0ba7e5fa27ee2d61416dceaff91331bff2b6116da8685611374565b60408051918252602082018690520160405180910390a250505050505050565b6000546001600160a01b03163314610c5d5760405162461bcd60e51b815260206004820181905260248201527f4f776e61626c653a2063616c6c6572206973206e6f7420746865206f776e657260448201526064016105d6565b600080546001600160a01b038381166001600160a01b0319831681178455604051919092169283917f8be0079c531659141344cd1fd0a4f28419497f9722a3daafe3b4186f6b6457e09190a35050565b604080516001600160a01b038416602482015260448082018490528251808303909101815260649091019091526020810180516001600160e01b031663a9059cbb60e01b1790526117f69084906117fb565b505050565b6000611850826040518060400160405280602081526020017f5361666545524332303a206c6f772d6c6576656c2063616c6c206661696c6564815250856001600160a01b03166118d09092919063ffffffff16565b90508051600014806118715750808060200190518101906118719190612049565b6117f65760405162461bcd60e51b815260206004820152602a60248201527f5361666545524332303a204552433230206f7065726174696f6e20646964206e6044820152691bdd081cdd58d8d9595960b21b60648201526084016105d6565b60606118df84846000856118e7565b949350505050565b6060824710156119485760405162461bcd60e51b815260206004820152602660248201527f416464726573733a20696e73756666696369656e742062616c616e636520666f6044820152651c8818d85b1b60d21b60648201526084016105d6565b600080866001600160a01b03168587604051611964919061206b565b60006040518083038185875af1925050503d80600081146119a1576040519150601f19603f3d011682016040523d82523d6000602084013e6119a6565b606091505b50915091506119b7878383876119c2565b979650505050505050565b60608315611a31578251600003611a2a576001600160a01b0385163b611a2a5760405162461bcd60e51b815260206004820152601d60248201527f416464726573733a2063616c6c20746f206e6f6e2d636f6e747261637400000060448201526064016105d6565b50816118df565b6118df8383815115611a465781518083602001fd5b8060405162461bcd60e51b81526004016105d69190612087565b600060208284031215611a7257600080fd5b5035919050565b60005b83811015611a94578181015183820152602001611a7c565b50506000910152565b60008151808452611ab5816020860160208601611a79565b601f01601f19169290920160200192915050565b6001600160a01b038916815261010060208201819052600090611aee8382018b611a9d565b604084019990995250506060810195909552921515608085015260a084019190915260c0830152151560e09091015292915050565b80356001600160a01b0381168114611b3a57600080fd5b919050565b600060208284031215611b5157600080fd5b61138082611b23565b634e487b7160e01b600052604160045260246000fd5b604051601f8201601f1916810167ffffffffffffffff81118282101715611b9957611b99611b5a565b604052919050565b60008060008060808587031215611bb757600080fd5b843567ffffffffffffffff80821115611bcf57600080fd5b818701915087601f830112611be357600080fd5b8135602082821115611bf757611bf7611b5a565b611c09601f8301601f19168201611b70565b92508183528981838601011115611c1f57600080fd5b81818501828501376000818385010152829750611c3d818a01611b23565b979a97995050505060408601359560600135949350505050565b60008060408385031215611c6a57600080fd5b611c7383611b23565b946020939093013593505050565b600181811c90821680611c9557607f821691505b602082108103611cb557634e487b7160e01b600052602260045260246000fd5b50919050565b6020808252601290820152710416d6f756e74206d757374206265203e20360741b604082015260600190565b634e487b7160e01b600052601160045260246000fd5b8082018082111561138357611383611ce7565b600060208284031215611d2257600080fd5b5051919050565b634e487b7160e01b600052603260045260246000fd5b600081518084526020808501945080840160005b83811015611d785781516001600160a01b031687529582019590820190600101611d53565b509495945050505050565b85815284602082015260a060408201526000611da260a0830186611d3f565b6001600160a01b0394909416606083015250608001529392505050565b60006020808385031215611dd257600080fd5b825167ffffffffffffffff80821115611dea57600080fd5b818501915085601f830112611dfe57600080fd5b815181811115611e1057611e10611b5a565b8060051b9150611e21848301611b70565b8181529183018401918481019088841115611e3b57600080fd5b938501935b83851015611e5957845182529385019390850190611e40565b98975050505050505050565b8181038181111561138357611383611ce7565b848152608060208201526000611e916080830186611d3f565b6001600160a01b03949094166040830152506060015292915050565b8281526040602082015260006118df6040830184611d3f565b808202811582820484141761138357611383611ce7565b600082611efa57634e487b7160e01b600052601260045260246000fd5b500490565b601f8211156117f657600081815260208120601f850160051c81016020861015611f265750805b601f850160051c820191505b81811015611f4557828155600101611f32565b505050505050565b815167ffffffffffffffff811115611f6757611f67611b5a565b611f7b81611f758454611c81565b84611eff565b602080601f831160018114611fb05760008415611f985750858301515b600019600386901b1c1916600185901b178555611f45565b600085815260208120601f198616915b82811015611fdf57888601518255948401946001909101908401611fc0565b5085821015611ffd5787850151600019600388901b60f8161c191681555b5050505050600190811b01905550565b60c08152600061202060c0830189611a9d565b60208301979097525060408101949094529115156060840152608083015260a090910152919050565b60006020828403121561205b57600080fd5b815180151581146114e957600080fd5b6000825161207d818460208701611a79565b9190910192915050565b6020815260006113806020830184611a9d56fea264697066735822122019bb076d2c688f49d4993db5564bd217dd1778a35713756d9a15bdf4ae7bdcc264736f6c63430008140033",
  "linkReferences": {},
  "deployedLinkReferences": {}
}