{
  "_format": "hh-sol-artifact-1",
  "contractName": "TradingVault",
  "sourceName": "contracts/TradingVault.sol",
  "abi": [
    {
      "inputs": [
        {
          "internalType": "address",
          "name": "_router",
          "type": "address"
        },
        {
          "internalType": "address",
          "name": "_treasury",
          "type": "address"
        }
      ],
      "stateMutability": "nonpayable",
      "type": "constructor"
    },
    {
      "anonymous": false,
      "inputs": [
        {
          "indexed": true,
          "internalType": "address",
          "name": "user",
          "type": "address"
        },
        {
          "indexed": false,
          "internalType": "uint256",
          "name": "amount",
          "type": "uint256"
        }
      ],
      "name": "Deposited",
      "type": "event"
    },
    {
      "anonymous": false,
      "inputs": [
        {
          "indexed": true,
          "internalType": "address",
          "name": "user",
          "type": "address"
        },
        {
          "indexed": false,
          "internalType": "uint256",
          "name": "amount",
          "type": "uint256"
        }
      ],
      "name": "EmergencyWithdraw",
      "type": "event"
    },
    {
      "anonymous": false,
      "inputs": [
        {
          "indexed": true,
          "internalType": "address",
          "name": "previousOwner",
          "type": "address"
        },
        {
          "indexed": true,
          "internalType": "address",
          "name": "newOwner",
          "type": "address"
        }
      ],
      "name": "OwnershipTransferred",
      "type": "event"
    },
    {
      "anonymous": false,
      "inputs": [
        {
          "indexed": true,
          "internalType": "address",
          "name": "user",
          "type": "address"
        },
        {
          "indexed": false,
          "internalType": "uint256",
          "name": "userShare",
          "type": "uint256"
        },
        {
          "indexed": false,
          "internalType": "uint256",
          "name": "treasuryShare",
          "type": "uint256"
        }
      ],
      "name": "ProfitDistributed",
      "type": "event"
    },
    {
      "anonymous": false,
      "inputs": [
        {
          "indexed": true,
          "internalType": "address",
          "name": "user",
          "type": "address"
        },
        {
          "indexed": false,
          "internalType": "string",
          "name": "pair",
          "type": "string"
        },
        {
          "indexed": false,
          "internalType": "uint256",
          "name": "amountIn",
          "type": "uint256"
        },
        {
          "indexed": false,
          "internalType": "uint256",
          "name": "amountOut",
          "type": "uint256"
        },
        {
          "indexed": false,
          "internalType": "bool",
          "name": "isBuy",
          "type": "bool"
        },
        {
          "indexed": false,
          "internalType": "uint256",
          "name": "fee",
          "type": "uint256"
        },
        {
          "indexed": false,
          "internalType": "uint256",
          "name": "timestamp",
          "type": "uint256"
        }
      ],
      "name": "TradeExecuted",
      "type": "event"
    },
    {
      "anonymous": false,
      "inputs": [
        {
          "indexed": true,
          "internalType": "address",
          "name": "user",
          "type": "address"
        },
        {
          "indexed": false,
          "internalType": "uint256",
          "name": "amount",
          "type": "uint256"
        }
      ],
      "name": "Withdrawn",
      "type": "event"
    },
    {
      "inputs": [],
      "name": "MAX_SLIPPAGE_PERCENT",
      "outputs": [
        {
          "internalType": "uint256",
          "name": "",
          "type": "uint256"
        }
      ],
      "stateMutability": "view",
      "type": "function"
    },
    {
      "inputs": [],
      "name": "MAX_TRADE_SIZE",
      "outputs": [
        {
          "internalType": "uint256",
          "name": "",
          "type": "uint256"
        }
      ],
      "stateMutability": "view",
      "type": "function"
    },
    {
      "inputs": [],
      "name": "MAX_TRADE_SIZE_TOKENS",
      "outputs": [
        {
          "internalType": "uint256",
          "name": "",
          "type": "uint256"
        }
      ],
      "stateMutability": "view",
      "type": "function"
    },
    {
      "inputs": [],
      "name": "MIN_DEPOSIT",
      "outputs": [
        {
          "internalType": "uint256",
          "name": "",
          "type": "uint256"
        }
      ],
      "stateMutability": "view",
      "type": "function"
    },
    {
      "inputs": [],
      "name": "TREASURY_FEE_PERCENT",
      "outputs": [
        {
          "internalType": "uint256",
          "name": "",
          "type": "uint256"
        }
      ],
      "stateMutability": "view",
      "type": "function"
    },
    {
      "inputs": [],
      "name": "USDC",
      "outputs": [
        {
          "internalType": "address",
          "name": "",
          "type": "address"
        }
      ],
      "stateMutability": "view",
      "type": "function"
    },
    {
      "inputs": [],
      "name": "USDC_TESTNET",
      "outputs": [
        {
          "internalType": "address",
          "name": "",
          "type": "address"
        }
      ],
      "stateMutability": "view",
      "type": "function"
    },
    {
      "inputs": [],
      "name": "USDT",
      "outputs": [
        {
          "internalType": "address",
          "name": "",
          "type": "address"
        }
      ],
      "stateMutability": "view",
      "type": "function"
    },
    {
      "inputs": [],
      "name": "USDT_TESTNET",
      "outputs": [
        {
          "internalType": "address",
          "name": "",
          "type": "address"
        }
      ],
      "stateMutability": "view",
      "type": "function"
    },
    {
      "inputs": [],
      "name": "deposit",
      "outputs": [],
      "stateMutability": "payable",
      "type": "function"
    },
    {
      "inputs": [
        {
          "internalType": "address",
          "name": "token",
          "type": "address"
        },
        {
          "internalType": "uint256",
          "name": "amount",
          "type": "uint256"
        }
      ],
      "name": "emergencyWithdraw",
      "outputs": [],
      "stateMutability": "nonpayable",
      "type": "function"
    },
    {
      "inputs": [
        {
          "internalType": "string",
          "name": "pair",
          "type": "string"
        },
        {
          "internalType": "address",
          "name": "tokenOut",
          "type": "address"
        },
        {
          "internalType": "uint256",
          "name": "amountIn",
          "type": "uint256"
        },
        {
          "internalType": "uint256",
          "name": "minAmountOut",
          "type": "uint256"
        }
      ],
      "name": "executeBuyTrade",
      "outputs": [],
      "stateMutability": "nonpayable",
      "type": "function"
    },
    {
      "inputs": [
        {
          "internalType": "string",
          "name": "pair",
          "type": "string"
        },
        {
          "internalType": "address",
          "name": "tokenIn",
          "type": "address"
        },
        {
          "internalType": "uint256",
          "name": "amountIn",
          "type": "uint256"
        },
        {
          "internalType": "uint256",
          "name": "minAmountOut",
          "type": "uint256"
        }
      ],
      "name": "executeSellTrade",
      "outputs": [],
      "stateMutability": "nonpayable",
      "type": "function"
    },
    {
      "inputs": [
        {
          "internalType": "address",
          "name": "user",
          "type": "address"
        }
      ],
      "name": "getUserInfo",
      "outputs": [
        {
          "internalType": "uint256",
          "name": "balance",
          "type": "uint256"
        },
        {
          "internalType": "uint256",
          "name": "profit",
          "type": "uint256"
        },
        {
          "internalType": "uint256",
          "name": "lastTradeTime",
          "type": "uint256"
        },
        {
          "internalType": "uint256",
          "name": "tradeCount",
          "type": "uint256"
        }
      ],
      "stateMutability": "view",
      "type": "function"
    },
    {
      "inputs": [],
      "name": "owner",
      "outputs": [
        {
          "internalType": "address",
          "name": "",
          "type": "address"
        }
      ],
      "stateMutability": "view",
      "type": "function"
    },
    {
      "inputs": [],
      "name": "pancakeRouter",
      "outputs": [
        {
          "internalType": "contract IPancakeRouter",
          "name": "",
          "type": "address"
        }
      ],
      "stateMutability": "view",
      "type": "function"
    },
    {
      "inputs": [],
      "name": "renounceOwnership",
      "outputs": [],
      "stateMutability": "nonpayable",
      "type": "function"
    },
    {
      "inputs": [
        {
          "internalType": "uint256",
          "name": "",
          "type": "uint256"
        }
      ],
      "name": "trades",
      "outputs": [
        {
          "internalType": "address",
          "name": "user",
          "type": "address"
        },
        {
          "internalType": "string",
          "name": "pair",
          "type": "string"
        },
        {
          "internalType": "uint256",
          "name": "amountIn",
          "type": "uint256"
        },
        {
          "internalType": "uint256",
          "name": "amountOut",
          "type": "uint256"
        },
        {
          "internalType": "bool",
          "name": "isBuy",
          "type": "bool"
        },
        {
          "internalType": "uint256",
          "name": "timestamp",
          "type": "uint256"
        },
        {
          "internalType": "uint256",
          "name": "feePaid",
          "type": "uint256"
        },
        {
          "internalType": "bool",
          "name": "success",
          "type": "bool"
        }
      ],
      "stateMutability": "view",
      "type": "function"
    },
    {
      "inputs": [
        {
          "internalType": "address",
          "name": "newOwner",
          "type": "address"
        }
      ],
      "name": "transferOwnership",
      "outputs": [],
      "stateMutability": "nonpayable",
      "type": "function"
    },
    {
      "inputs": [],
      "name": "treasuryWallet",
      "outputs": [
        {
          "internalType": "address",
          "name": "",
          "type": "address"
        }
      ],
      "stateMutability": "view",
      "type": "function"
    },
    {
      "inputs": [
        {
          "internalType": "address",
          "name": "",
          "type": "address"
        }
      ],
      "name": "userBalances",
      "outputs": [
        {
          "internalType": "uint256",
          "name": "",
          "type": "uint256"
        }
      ],
      "stateMutability": "view",
      "type": "function"
    },
    {
      "inputs": [
        {
          "internalType": "address",
          "name": "",
          "type": "address"
        }
      ],
      "name": "userLastTradeTimestamp",
      "outputs": [
        {
          "internalType": "uint256",
          "name": "",
          "type": "uint256"
        }
      ],
      "stateMutability": "view",
      "type": "function"
    },
    {
      "inputs": [
        {
          "internalType": "address",
          "name": "",
          "type": "address"
        }
      ],
      "name": "userProfits",
      "outputs": [
        {
          "internalType": "uint256",
          "name": "",
          "type": "uint256"
        }
      ],
      "stateMutability": "view",
      "type": "function"
    },
    {
      "inputs": [
        {
          "internalType": "address",
          "name": "",
          "type": "address"
        },
        {
          "internalType": "uint256",
          "name": "",
          "type": "uint256"
        }
      ],
      "name": "userTradeIds",
      "outputs": [
        {
          "internalType": "uint256",
          "name": "",
          "type": "uint256"
        }
      ],
      "stateMutability": "view",
      "type": "function"
    },
    {
      "inputs": [],
      "name": "weth",
      "outputs": [
        {
          "internalType": "address",
          "name": "",
          "type": "address"
        }
      ],
      "stateMutability": "view",
      "type": "function"
    },
    {
      "inputs": [
        {
          "internalType": "uint256",
          "name": "amount",
          "type": "uint256"
        }
      ],
      "name": "withdraw",
      "outputs": [],
      "stateMutability": "nonpayable",
      "type": "function"
    },
    {
      "inputs": [
        {
          "internalType": "address",
          "name": "token",
          "type": "address"
        },
        {
          "internalType": "uint256",
          "name": "amount",
          "type": "uint256"
        }
      ],
      "name": "withdrawProfits",
      "outputs": [],
      "stateMutability": "nonpayable",
      "type": "function"
    },
    {
      "stateMutability": "payable",
      "type": "receive"
    }
  ],
  "bytecode": "0x60806040523480156200001157600080fd5b506040516200275638038062002756833981016040819052620000349162000201565b6200003f3362000194565b600180556001600160a01b038216620000905760405162461bcd60e51b815260206004820152600e60248201526d24b73b30b634b2103937baba32b960911b60448201526064015b60405180910390fd5b6001600160a01b038116620000db5760405162461bcd60e51b815260206004820152601060248201526f496e76616c696420747265617375727960801b604482015260640162000087565b600280546001600160a01b038085166001600160a01b031992831681179093556003805491851691909216179055604080516315ab88c960e31b8152905163ad5c4648916004808201926020929091908290030181865afa15801562000145573d6000803e3d6000fd5b505050506040513d601f19601f820116820180604052508101906200016b919062000239565b600480546001600160a01b0319166001600160a01b0392909216919091179055506200025e9050565b600080546001600160a01b038381166001600160a01b0319831681178455604051919092169283917f8be0079c531659141344cd1fd0a4f28419497f9722a3daafe3b4186f6b6457e09190a35050565b80516001600160a01b0381168114620001fc57600080fd5b919050565b600080604083850312156200021557600080fd5b6200022083620001e4565b91506200023060208401620001e4565b90509250929050565b6000602082840312156200024c57600080fd5b6200025782620001e4565b9392505050565b6124e8806200026e6000396000f3fe6080604052600436106101a05760003560e01c806395ccea67116100ec578063c54e44eb1161008a578063e111703a11610064578063e111703a14610539578063e1e158a51461054e578063e8452b0014610569578063f2fde38b1461058957600080fd5b8063c54e44eb146104eb578063cdd1ea8914610513578063d0e30db01461053157600080fd5b8063acdb5208116100c6578063acdb52081461045a578063be35483614610476578063c21ebd07146104a3578063c52c8e02146104c357600080fd5b806395ccea67146103fa578063a1fdd0bf1461041a578063aafc96511461043a57600080fd5b80633fc8cef31161015957806370cd4ffa1161013357806370cd4ffa14610372578063715018a61461039f57806389a30271146103b45780638da5cb5b146103dc57600080fd5b80633fc8cef3146102bb5780634626402b146102db5780636386c1c7146102fb57600080fd5b80631e6c598e146101ac5780631f64a442146101e957806326224c64146102295780632e1a7d4d1461026457806331780cbb1461028657806332e4b286146102a657600080fd5b366101a757005b600080fd5b3480156101b857600080fd5b506101cc6101c7366004611e4d565b6105a9565b6040516101e0989796959493929190611eb6565b60405180910390f35b3480156101f557600080fd5b5061021173337610d27c682e347c9cd60bd4b3b107c9d34ddd81565b6040516001600160a01b0390911681526020016101e0565b34801561023557600080fd5b50610256610244366004611f2c565b60056020526000908152604090205481565b6040519081526020016101e0565b34801561027057600080fd5b5061028461027f366004611e4d565b610697565b005b34801561029257600080fd5b506102846102a1366004611f8e565b610866565b3480156102b257600080fd5b50610256600581565b3480156102c757600080fd5b50600454610211906001600160a01b031681565b3480156102e757600080fd5b50600354610211906001600160a01b031681565b34801561030757600080fd5b50610352610316366004611f2c565b6001600160a01b031660009081526005602090815260408083205460068352818420546007845282852054600990945291909320549293909290565b6040805194855260208501939093529183015260608201526080016101e0565b34801561037e57600080fd5b5061025661038d366004611f2c565b60076020526000908152604090205481565b3480156103ab57600080fd5b50610284610d7d565b3480156103c057600080fd5b50610211738ac76a51cc950d9822d68b83fe1ad97b32cd580d81565b3480156103e857600080fd5b506000546001600160a01b0316610211565b34801561040657600080fd5b50610284610415366004612044565b610d91565b34801561042657600080fd5b50610284610435366004611f8e565b610eb5565b34801561044657600080fd5b50610284610455366004612044565b6112a3565b34801561046657600080fd5b50610256678ac7230489e8000081565b34801561048257600080fd5b50610256610491366004611f2c565b60066020526000908152604090205481565b3480156104af57600080fd5b50600254610211906001600160a01b031681565b3480156104cf57600080fd5b506102117364544969ed7eb0cc09976691157399e1adc1a3cc81565b3480156104f757600080fd5b506102117355d398326f99059ff775485246999027b319795581565b34801561051f57600080fd5b5061025669010f0cf064dd5920000081565b61028461148c565b34801561054557600080fd5b50610256603281565b34801561055a57600080fd5b50610256662386f26fc1000081565b34801561057557600080fd5b50610256610584366004612044565b611579565b34801561059557600080fd5b506102846105a4366004611f2c565b6115aa565b600881815481106105b957600080fd5b6000918252602090912060089091020180546001820180546001600160a01b039092169350906105e89061206e565b80601f01602080910402602001604051908101604052809291908181526020018280546106149061206e565b80156106615780601f1061063657610100808354040283529160200191610661565b820191906000526020600020905b81548152906001019060200180831161064457829003601f168201915b505050600284015460038501546004860154600587015460068801546007909801549697939692955060ff918216945092911688565b61069f611620565b80600081116106c95760405162461bcd60e51b81526004016106c0906120a8565b60405180910390fd5b3360009081526005602052604090205482111561071f5760405162461bcd60e51b8152602060048201526014602482015273496e73756666696369656e742062616c616e636560601b60448201526064016106c0565b8147101561076f5760405162461bcd60e51b815260206004820152601860248201527f5661756c7420696e73756666696369656e742066756e6473000000000000000060448201526064016106c0565b336000908152600560205260409020546107899083611679565b3360008181526005602052604080822093909355915184908381818185875af1925050503d80600081146107d9576040519150601f19603f3d011682016040523d82523d6000602084013e6107de565b606091505b50509050806108235760405162461bcd60e51b815260206004820152601160248201527015da5d1a191c985dd85b0819985a5b1959607a1b60448201526064016106c0565b60405183815233907f7084f5476618d8e60b11ef0d7d3f06914655adb8793e28ff7f018d4c76d505d59060200160405180910390a2505061086360018055565b50565b61086e611620565b3360008181526007602052604090205461088990601e6120ea565b4210156108ca5760405162461bcd60e51b815260206004820152600f60248201526e436f6f6c646f776e2061637469766560881b60448201526064016106c0565b82600081116108eb5760405162461bcd60e51b81526004016106c0906120a8565b60006108f68661168e565b90506001600160a01b0381167355d398326f99059ff775485246999027b3197955148061093f57506001600160a01b038116738ac76a51cc950d9822d68b83fe1ad97b32cd580d145b61095b5760405162461bcd60e51b81526004016106c0906120fd565b336000908152600660205260409020548511156109ba5760405162461bcd60e51b815260206004820152601b60248201527f496e73756666696369656e742070726f6669742062616c616e6365000000000060448201526064016106c0565b69010f0cf064dd59200000851115610a045760405162461bcd60e51b815260206004820152600d60248201526c115e18d959591cc81b1a5b5a5d609a1b60448201526064016106c0565b6040516370a0823160e01b815230600482015285906001600160a01b038316906370a0823190602401602060405180830381865afa158015610a4a573d6000803e3d6000fd5b505050506040513d601f19601f82011682018060405250810190610a6e9190612128565b1015610aaa5760405162461bcd60e51b815260206004820152600b60248201526a5661756c7420656d70747960a81b60448201526064016106c0565b600454600090610ac690879084906001600160a01b0316611776565b905080851015610b0c5760405162461bcd60e51b81526020600482015260116024820152700a6d8d2e0e0c2ceca40e8dede40d0d2ced607b1b60448201526064016106c0565b33600090815260066020526040902054610b269087611679565b3360009081526006602052604080822092909255815160028082526060820190935290918160200160208202803683370190505090508281600081518110610b7057610b70612141565b6001600160a01b039283166020918202929092010152600454825191169082906001908110610ba157610ba1612141565b6001600160a01b039283166020918202929092010152600254600091166318cbafe589898530610bd3426104b06120ea565b6040518663ffffffff1660e01b8152600401610bf395949392919061219b565b6000604051808303816000875af1158015610c12573d6000803e3d6000fd5b505050506040513d6000823e601f3d908101601f19168201604052610c3a91908101906121d7565b905060008160018351610c4d919061227d565b81518110610c5d57610c5d612141565b602002602001015190506000610c886064610c826032856118d190919063ffffffff16565b906118dd565b90506000610c968383611679565b33600090815260056020526040902054909150610cb390826118e9565b3360009081526005602052604080822092909255600354915190916001600160a01b03169084908381818185875af1925050503d8060008114610d12576040519150601f19603f3d011682016040523d82523d6000602084013e610d17565b606091505b5050905080610d555760405162461bcd60e51b815260206004820152600a6024820152691199594819985a5b195960b21b60448201526064016106c0565b610d64338f8e876000886118f5565b50505050505050505050610d7760018055565b50505050565b610d85611ae7565b610d8f6000611b41565b565b610d99611ae7565b6001600160a01b038216610e3d57600080546040516001600160a01b039091169083908381818185875af1925050503d8060008114610df4576040519150601f19603f3d011682016040523d82523d6000602084013e610df9565b606091505b5050905080610e375760405162461bcd60e51b815260206004820152600a6024820152691093908819985a5b195960b21b60448201526064016106c0565b50610e63565b610e63610e526000546001600160a01b031690565b6001600160a01b0384169083611b91565b6000546001600160a01b03166001600160a01b03167f5fafa99d0643513820be26656b45130b01e1c03062e1266bf36f88cbd3bd969582604051610ea991815260200190565b60405180910390a25050565b610ebd611620565b33600081815260076020526040902054610ed890601e6120ea565b421015610f195760405162461bcd60e51b815260206004820152600f60248201526e436f6f6c646f776e2061637469766560881b60448201526064016106c0565b8260008111610f3a5760405162461bcd60e51b81526004016106c0906120a8565b33600090815260056020526040902054841115610f905760405162461bcd60e51b8152602060048201526014602482015273496e73756666696369656e742062616c616e636560601b60448201526064016106c0565b678ac7230489e80000841115610fd85760405162461bcd60e51b815260206004820152600d60248201526c115e18d959591cc81b1a5b5a5d609a1b60448201526064016106c0565b6000610fe38661168e565b90506001600160a01b0381167355d398326f99059ff775485246999027b3197955148061102c57506001600160a01b038116738ac76a51cc950d9822d68b83fe1ad97b32cd580d145b6110485760405162461bcd60e51b81526004016106c0906120fd565b6004546000906110639087906001600160a01b031684611776565b9050808510156110a95760405162461bcd60e51b81526020600482015260116024820152700a6d8d2e0e0c2ceca40e8dede40d0d2ced607b1b60448201526064016106c0565b336000908152600560205260409020546110c39087611679565b336000908152600560205260408082209290925581516002808252606082019093529091816020016020820280368337505060045482519293506001600160a01b03169183915060009061111957611119612141565b60200260200101906001600160a01b031690816001600160a01b031681525050828160018151811061114d5761114d612141565b6001600160a01b03928316602091820292909201015260025460009116637ff36ab58989853061117f426104b06120ea565b6040518663ffffffff1660e01b815260040161119e9493929190612290565b60006040518083038185885af11580156111bc573d6000803e3d6000fd5b50505050506040513d6000823e601f3d908101601f191682016040526111e591908101906121d7565b9050600081600183516111f8919061227d565b8151811061120857611208612141565b60200260200101519050600061122d6064610c826032856118d190919063ffffffff16565b9050600061123b8383611679565b3360009081526006602052604090205490915061125890826118e9565b33600090815260066020526040902055600354611282906001600160a01b03898116911684611b91565b611291338e8d866001876118f5565b505050505050505050610d7760018055565b6112ab611620565b80600081116112cc5760405162461bcd60e51b81526004016106c0906120a8565b6001600160a01b0383167355d398326f99059ff775485246999027b3197955148061131357506001600160a01b038316738ac76a51cc950d9822d68b83fe1ad97b32cd580d145b61132f5760405162461bcd60e51b81526004016106c0906120fd565b336000908152600660205260409020548211156113845760405162461bcd60e51b8152602060048201526013602482015272125b9cdd59999a58da595b9d081c1c9bd99a5d606a1b60448201526064016106c0565b6040516370a0823160e01b815230600482015282906001600160a01b038516906370a0823190602401602060405180830381865afa1580156113ca573d6000803e3d6000fd5b505050506040513d601f19601f820116820180604052508101906113ee9190612128565b101561143c5760405162461bcd60e51b815260206004820152601960248201527f5661756c7420696e73756666696369656e7420746f6b656e730000000000000060448201526064016106c0565b336000908152600660205260409020546114569083611679565b3360008181526006602052604090209190915561147e906001600160a01b0385169084611b91565b5061148860018055565b5050565b611494611620565b34600081116114b55760405162461bcd60e51b81526004016106c0906120a8565b662386f26fc100003410156114fc5760405162461bcd60e51b815260206004820152600d60248201526c42656c6f77206d696e696d756d60981b60448201526064016106c0565b3360009081526005602052604090205461151690346118e9565b336000818152600560209081526040808320949094556007905282902042905590517f2da466a7b24304f47e87fa2e1e5a81b9831ce54fec19055ce277ca2f39ba42c4906115679034815260200190565b60405180910390a250610d8f60018055565b6009602052816000526040600020818154811061159557600080fd5b90600052602060002001600091509150505481565b6115b2611ae7565b6001600160a01b0381166116175760405162461bcd60e51b815260206004820152602660248201527f4f776e61626c653a206e6577206f776e657220697320746865207a65726f206160448201526564647265737360d01b60648201526084016106c0565b61086381611b41565b6002600154036116725760405162461bcd60e51b815260206004820152601f60248201527f5265656e7472616e637947756172643a207265656e7472616e742063616c6c0060448201526064016106c0565b6002600155565b6000611685828461227d565b90505b92915050565b60006001600160a01b0382167355d398326f99059ff775485246999027b319795514806116d757506001600160a01b03821673337610d27c682e347c9cd60bd4b3b107c9d34ddd145b156116f757507355d398326f99059ff775485246999027b3197955919050565b6001600160a01b038216738ac76a51cc950d9822d68b83fe1ad97b32cd580d148061173e57506001600160a01b0382167364544969ed7eb0cc09976691157399e1adc1a3cc145b1561175e5750738ac76a51cc950d9822d68b83fe1ad97b32cd580d919050565b60405162461bcd60e51b81526004016106c0906120fd565b6040805160028082526060820183526000928392919060208301908036833701905050905083816000815181106117af576117af612141565b60200260200101906001600160a01b031690816001600160a01b03168152505082816001815181106117e3576117e3612141565b6001600160a01b03928316602091820292909201015260025460405163d06ca61f60e01b815291169063d06ca61f9061182290889085906004016122c5565b600060405180830381865afa92505050801561186057506040513d6000823e601f3d908101601f1916820160405261185d91908101906121d7565b60015b61187c576118746064610c8287605f6118d1565b9150506118ca565b6000816001835161188d919061227d565b8151811061189d5761189d612141565b602002602001015190506118c46064610c82600560646118bd919061227d565b84906118d1565b93505050505b9392505050565b600061168582846122de565b600061168582846122f5565b600061168582846120ea565b6008805460408051610100810182526001600160a01b038a81168252602082018a81529282018990526060820188905286151560808301524260a083015260c08201869052600160e0830181905284018555600085905281517ff3f7a9fe364faab93b216da50a3214154f22a0a2b415b23a84c8169e8b636ee395850295860180546001600160a01b031916919092161781559151929390927ff3f7a9fe364faab93b216da50a3214154f22a0a2b415b23a84c8169e8b636ee4909101906119bd9082612365565b50604082810151600283015560608301516003830155608083015160048301805491151560ff1992831617905560a0840151600584015560c0840151600684015560e0909301516007928301805491151591909416179092556001600160a01b03891660008181526009602090815284822080546001810182559083528183200186905582825292909252908290204290819055915190917fb614238aeadc94d01a2d3933d3ef0692e0b8836ea30ad61f2dbaad8d637d776b91611a8a918a918a918a918a918a91612425565b60405180910390a26001600160a01b0387167f6d3df9844b6224b91ec53a46da9db0ba7e5fa27ee2d61416dceaff91331bff2b611ac78685611679565b60408051918252602082018690520160405180910390a250505050505050565b6000546001600160a01b03163314610d8f5760405162461bcd60e51b815260206004820181905260248201527f4f776e61626c653a2063616c6c6572206973206e6f7420746865206f776e657260448201526064016106c0565b600080546001600160a01b038381166001600160a01b0319831681178455604051919092169283917f8be0079c531659141344cd1fd0a4f28419497f9722a3daafe3b4186f6b6457e09190a35050565b604080516001600160a01b038416602482015260448082018490528251808303909101815260649091019091526020810180516001600160e01b031663a9059cbb60e01b179052611be3908490611be8565b505050565b6000611c3d826040518060400160405280602081526020017f5361666545524332303a206c6f772d6c6576656c2063616c6c206661696c6564815250856001600160a01b0316611cbd9092919063ffffffff16565b9050805160001480611c5e575080806020019051810190611c5e9190612461565b611be35760405162461bcd60e51b815260206004820152602a60248201527f5361666545524332303a204552433230206f7065726174696f6e20646964206e6044820152691bdd081cdd58d8d9595960b21b60648201526084016106c0565b6060611ccc8484600085611cd4565b949350505050565b606082471015611d355760405162461bcd60e51b815260206004820152602660248201527f416464726573733a20696e73756666696369656e742062616c616e636520666f6044820152651c8818d85b1b60d21b60648201526084016106c0565b600080866001600160a01b03168587604051611d519190612483565b60006040518083038185875af1925050503d8060008114611d8e576040519150601f19603f3d011682016040523d82523d6000602084013e611d93565b606091505b5091509150611da487838387611daf565b979650505050505050565b60608315611e1e578251600003611e17576001600160a01b0385163b611e175760405162461bcd60e51b815260206004820152601d60248201527f416464726573733a2063616c6c20746f206e6f6e2d636f6e747261637400000060448201526064016106c0565b5081611ccc565b611ccc8383815115611e335781518083602001fd5b8060405162461bcd60e51b81526004016106c0919061249f565b600060208284031215611e5f57600080fd5b5035919050565b60005b83811015611e81578181015183820152602001611e69565b50506000910152565b60008151808452611ea2816020860160208601611e66565b601f01601f19169290920160200192915050565b6001600160a01b038916815261010060208201819052600090611edb8382018b611e8a565b604084019990995250506060810195909552921515608085015260a084019190915260c0830152151560e09091015292915050565b80356001600160a01b0381168114611f2757600080fd5b919050565b600060208284031215611f3e57600080fd5b61168582611f10565b634e487b7160e01b600052604160045260246000fd5b604051601f8201601f1916810167ffffffffffffffff81118282101715611f8657611f86611f47565b604052919050565b60008060008060808587031215611fa457600080fd5b843567ffffffffffffffff80821115611fbc57600080fd5b818701915087601f830112611fd057600080fd5b8135602082821115611fe457611fe4611f47565b611ff6601f8301601f19168201611f5d565b9250818352898183860101111561200c57600080fd5b8181850182850137600081838501015282975061202a818a01611f10565b979a97995050505060408601359560600135949350505050565b6000806040838503121561205757600080fd5b61206083611f10565b946020939093013593505050565b600181811c9082168061208257607f821691505b6020821081036120a257634e487b7160e01b600052602260045260246000fd5b50919050565b6020808252601290820152710416d6f756e74206d757374206265203e20360741b604082015260600190565b634e487b7160e01b600052601160045260246000fd5b80820180821115611688576116886120d4565b6020808252601190820152702ab739bab83837b93a32b2103a37b5b2b760791b604082015260600190565b60006020828403121561213a57600080fd5b5051919050565b634e487b7160e01b600052603260045260246000fd5b600081518084526020808501945080840160005b838110156121905781516001600160a01b03168752958201959082019060010161216b565b509495945050505050565b85815284602082015260a0604082015260006121ba60a0830186612157565b6001600160a01b0394909416606083015250608001529392505050565b600060208083850312156121ea57600080fd5b825167ffffffffffffffff8082111561220257600080fd5b818501915085601f83011261221657600080fd5b81518181111561222857612228611f47565b8060051b9150612239848301611f5d565b818152918301840191848101908884111561225357600080fd5b938501935b8385101561227157845182529385019390850190612258565b98975050505050505050565b81810381811115611688576116886120d4565b8481526080602082015260006122a96080830186612157565b6001600160a01b03949094166040830152506060015292915050565b828152604060208201526000611ccc6040830184612157565b8082028115828204841417611688576116886120d4565b60008261231257634e487b7160e01b600052601260045260246000fd5b500490565b601f821115611be357600081815260208120601f850160051c8101602086101561233e5750805b601f850160051c820191505b8181101561235d5782815560010161234a565b505050505050565b815167ffffffffffffffff81111561237f5761237f611f47565b6123938161238d845461206e565b84612317565b602080601f8311600181146123c857600084156123b05750858301515b600019600386901b1c1916600185901b17855561235d565b600085815260208120601f198616915b828110156123f7578886015182559484019460019091019084016123d8565b50858210156124155787850151600019600388901b60f8161c191681555b5050505050600190811b01905550565b60c08152600061243860c0830189611e8a565b60208301979097525060408101949094529115156060840152608083015260a090910152919050565b60006020828403121561247357600080fd5b815180151581146118ca57600080fd5b60008251612495818460208701611e66565b9190910192915050565b6020815260006116856020830184611e8a56fea2646970667358221220eb1c8b6db59a316a545d2d7a4f8c5eba8be78bcdb54a246bf0644b861ec0210564736f6c63430008140033",
  "linkReferences": {},
  "deployedLinkReferences": {}
}